:100000000C9434000C9413010C9413010C94130100
:100010000C9413010C9413010C9413010C94130110
:100020000C9413010C9413010C9413010C94130100
:100030000C9413010C9413010C9413010C941301F0
:100040000C9413010C9413010C9413010C941301E0
:100050000C9413010C9413010C9413010C941301D0
:100060000C9413010C94130111241FBECFEFD8E0A0
:10007000DEBFCDBF0E9496000C943E00F894FFCFE7
:10008000823D910590F48DEC90E0909389008093EF
:1000900088002FEF49EF80E0215040408040E1F799
:1000A00000C0000081E090E008959C01225D3109CC
:1000B0002C32314090F48AE991E09093890080934A
:1000C00088008FEF99EF20E0815090402040E1F7C9
:1000D00000C0000082E090E008958E5F9140883C6F
:1000E000910590F48DEC92E09093890080938800C4
:1000F0004FEF89EF90E0415080409040E1F700C021
:10010000000083E090E008958DEC93E090938900E7
:10011000809388002FEF49EF80E0215040408040DD
:0C012000E1F700C0000084E090E00895CA
:10012C000E94EE000E940C010E94FE0099B129B1C0
:10013C0081E0982722952F70822781708923D9F02E
:10014C002FEF87EA91E6215080409040E1F700C004
:10015C00000085B1816085B980E00E94D2000E94C8
:10016C0040002FEF89EF90E0215080409040E1F764
:10017C0000C00000DBCF2FEF89EF90E021508040D2
:10018C009040E1F700C000001092890010928800A6
:08019C0085B18E7F85B9CACF41
:1001A400ECE7F0E09081987F908387709081892BB1
:1001B4008083EAE7F0E080818064808380917A0024
:1001C40084FFFCCFEAE7F0E0808180618083809146
:0801D400780090917900089574
:1001DC0084B1816084B98AB181708AB98AB1807125
:1001EC008AB98BB181608BB98BB180618BB9089561
:1001FC00E0E8F0E0808183688083E1E8F0E08081D2
:0C020C008B60808384B1826084B9089507
:0E02180080E480937C0087E880937A0008954C
:040226000C94000034
:00000001FF
